{
  "contractName": "Jury",
  "abi": [
    {
      "inputs": [],
      "payable": false,
      "stateMutability": "nonpayable",
      "type": "constructor"
    },
    {
      "constant": true,
      "inputs": [],
      "name": "getJudgmentsCount",
      "outputs": [
        {
          "name": "",
          "type": "uint256"
        }
      ],
      "payable": false,
      "stateMutability": "view",
      "type": "function"
    },
    {
      "constant": true,
      "inputs": [],
      "name": "getJudgmentsIndexes",
      "outputs": [
        {
          "name": "res",
          "type": "bytes32[]"
        }
      ],
      "payable": false,
      "stateMutability": "view",
      "type": "function"
    },
    {
      "constant": true,
      "inputs": [
        {
          "name": "_index",
          "type": "bytes32"
        }
      ],
      "name": "getJudgment",
      "outputs": [
        {
          "name": "judgmentMatter",
          "type": "string"
        },
        {
          "name": "publicKeysX",
          "type": "uint256[]"
        },
        {
          "name": "publicKeysY",
          "type": "uint256[]"
        },
        {
          "name": "juryThreshold",
          "type": "uint256"
        },
        {
          "name": "isGuilty",
          "type": "bool"
        },
        {
          "name": "alreadyMadeDecisions",
          "type": "uint256"
        },
        {
          "name": "message",
          "type": "bytes32"
        }
      ],
      "payable": false,
      "stateMutability": "view",
      "type": "function"
    },
    {
      "constant": false,
      "inputs": [
        {
          "name": "_judgmentMatter",
          "type": "string"
        },
        {
          "name": "_publicKeysX",
          "type": "uint256[]"
        },
        {
          "name": "_publicKeysY",
          "type": "uint256[]"
        },
        {
          "name": "_juryThreshold",
          "type": "uint256"
        },
        {
          "name": "deadline",
          "type": "uint256"
        }
      ],
      "name": "add",
      "outputs": [],
      "payable": false,
      "stateMutability": "nonpayable",
      "type": "function"
    },
    {
      "constant": false,
      "inputs": [
        {
          "name": "_judgmentsHash",
          "type": "bytes32"
        },
        {
          "name": "_tagPoint",
          "type": "uint256[2]"
        },
        {
          "name": "ctlist",
          "type": "uint256[]"
        }
      ],
      "name": "guilty",
      "outputs": [],
      "payable": false,
      "stateMutability": "nonpayable",
      "type": "function"
    }
  ],
  "bytecode": "0x608060405234801561001057600080fd5b50613011806100206000396000f30060806040526004361062000073576000357c0100000000000000000000000000000000000000000000000000000000900463ffffffff16806339cb70ac14620000785780635cb9763914620000e95780636554dcdf146200018f57806396fbcb1014620001bd578063afc44dad1462000329575b600080fd5b3480156200008557600080fd5b50620000906200042f565b6040518080602001828103825283818151815260200191508051906020019060200280838360005b83811015620000d5578082015181840152602081019050620000b8565b505050509050019250505060405180910390f35b348015620000f657600080fd5b506200018d6004803603810190808035600019169060200190929190806040019060028060200260405190810160405280929190826002602002808284378201915050505050919291929080359060200190820180359060200190808060200260200160405190810160405280939291908181526020018383602002808284378201915050505050509192919290505050620004c9565b005b3480156200019c57600080fd5b50620001a762000a14565b6040518082815260200191505060405180910390f35b348015620001ca57600080fd5b50620001ef600480360381019080803560001916906020019092919050505062000a20565b6040518080602001806020018060200188815260200187151515158152602001868152602001856000191660001916815260200184810384528b818151815260200191508051906020019080838360005b838110156200025d57808201518184015260208101905062000240565b50505050905090810190601f1680156200028b5780820380516001836020036101000a031916815260200191505b5084810383528a818151815260200191508051906020019060200280838360005b83811015620002c9578082015181840152602081019050620002ac565b50505050905001848103825289818151815260200191508051906020019060200280838360005b838110156200030d578082015181840152602081019050620002f0565b505050509050019a505050505050505050505060405180910390f35b3480156200033657600080fd5b506200042d600480360381019080803590602001908201803590602001908080601f0160208091040260200160405190810160405280939291908181526020018383808284378201915050505050509192919290803590602001908201803590602001908080602002602001604051908101604052809392919081815260200183836020028082843782019150505050505091929192908035906020019082018035906020019080806020026020016040519081016040528093929190818152602001838360200280828437820191505050505050919291929080359060200190929190803590602001909291905050506200105b565b005b606060008080549050604051908082528060200260200182016040528015620004675781602001602082028038833980820191505090505b5091505b8151811015620004c5576000818154811015156200048557fe5b906000526020600020015482828151811015156200049f57fe5b90602001906020020190600019169081600019168152505080806001019150506200046b565b5090565b824260016000836000191660001916815260200190815260200160002060030154111515620004f757600080fd5b8360016000826000191660001916815260200190815260200160002060010154600190046000141515156200052b57600080fd5b60016000866000191660001916815260200190815260200160002060020160019054906101000a900473ffffffffffffffffffffffffffffffffffffffff1684848273ffffffffffffffffffffffffffffffffffffffff166342cde4e86040518163ffffffff167c0100000000000000000000000000000000000000000000000000000000028152600401602060405180830381600087803b158015620005d157600080fd5b505af1158015620005e6573d6000803e3d6000fd5b505050506040513d6020811015620005fd57600080fd5b81019080805190602001909291905050508373ffffffffffffffffffffffffffffffffffffffff1663c0fda0ec6040518163ffffffff167c0100000000000000000000000000000000000000000000000000000000028152600401602060405180830381600087803b1580156200067357600080fd5b505af115801562000688573d6000803e3d6000fd5b505050506040513d60208110156200069f57600080fd5b8101908080519060200190929190505050101515620006bd57600080fd5b8273ffffffffffffffffffffffffffffffffffffffff16623db8e383836040518363ffffffff167c01000000000000000000000000000000000000000000000000000000000281526004018083600260200280838360005b838110156200073257808201518184015260208101905062000715565b5050505090500180602001828103825283818151815260200191508051906020019060200280838360005b838110156200077a5780820151818401526020810190506200075d565b505050509050019350505050602060405180830381600087803b158015620007a157600080fd5b505af1158015620007b6573d6000803e3d6000fd5b505050506040513d6020811015620007cd57600080fd5b81019080805190602001909291905050501515620007ea57600080fd5b8273ffffffffffffffffffffffffffffffffffffffff1663ccc47ec88360006002811015156200081657fe5b60200201516040518263ffffffff167c010000000000000000000000000000000000000000000000000000000002815260040180828152602001915050600060405180830381600087803b1580156200086e57600080fd5b505af115801562000883573d6000803e3d6000fd5b505050508273ffffffffffffffffffffffffffffffffffffffff166342cde4e86040518163ffffffff167c0100000000000000000000000000000000000000000000000000000000028152600401602060405180830381600087803b158015620008ec57600080fd5b505af115801562000901573d6000803e3d6000fd5b505050506040513d60208110156200091857600080fd5b81019080805190602001909291905050508373ffffffffffffffffffffffffffffffffffffffff1663c0fda0ec6040518163ffffffff167c0100000000000000000000000000000000000000000000000000000000028152600401602060405180830381600087803b1580156200098e57600080fd5b505af1158015620009a3573d6000803e3d6000fd5b505050506040513d6020811015620009ba57600080fd5b810190808051906020019092919050505010151562000a0a5760018060008a6000191660001916815260200190815260200160002060020160006101000a81548160ff0219169083151502179055505b5050505050505050565b60008080549050905090565b60608060606000806000806000600160008a600019166000191681526020019081526020016000206000018054600181600116156101000203166002900480601f01602080910402602001604051908101604052809291908181526020018280546001816001161561010002031660029004801562000ae35780601f1062000ab75761010080835404028352916020019162000ae3565b820191906000526020600020905b81548152906001019060200180831162000ac557829003601f168201915b50505050509750600160008a6000191660001916815260200190815260200160002060020160019054906101000a900473ffffffffffffffffffffffffffffffffffffffff1673ffffffffffffffffffffffffffffffffffffffff16635a8a2aa56040518163ffffffff167c0100000000000000000000000000000000000000000000000000000000028152600401602060405180830381600087803b15801562000b8d57600080fd5b505af115801562000ba2573d6000803e3d6000fd5b505050506040513d602081101562000bb957600080fd5b810190808051906020019092919050505060405190808252806020026020018201604052801562000bf95781602001602082028038833980820191505090505b509650865160405190808252806020026020018201604052801562000c2d5781602001602082028038833980820191505090505b509550600090505b865181101562000d7b57600160008a6000191660001916815260200190815260200160002060020160019054906101000a900473ffffffffffffffffffffffffffffffffffffffff1673ffffffffffffffffffffffffffffffffffffffff166375d2c1ce826040518263ffffffff167c0100000000000000000000000000000000000000000000000000000000028152600401808281526020019150506040805180830381600087803b15801562000cec57600080fd5b505af115801562000d01573d6000803e3d6000fd5b505050506040513d604081101562000d1857600080fd5b810190808051906020019092919080519060200190929190505050888381518110151562000d4257fe5b906020019060200201888481518110151562000d5a57fe5b90602001906020020182815250828152505050808060010191505062000c35565b600160008a6000191660001916815260200190815260200160002060020160019054906101000a900473ffffffffffffffffffffffffffffffffffffffff1673ffffffffffffffffffffffffffffffffffffffff166342cde4e86040518163ffffffff167c0100000000000000000000000000000000000000000000000000000000028152600401602060405180830381600087803b15801562000e1e57600080fd5b505af115801562000e33573d6000803e3d6000fd5b505050506040513d602081101562000e4a57600080fd5b81019080805190602001909291905050509450600160008a6000191660001916815260200190815260200160002060020160009054906101000a900460ff169350600160008a6000191660001916815260200190815260200160002060020160019054906101000a900473ffffffffffffffffffffffffffffffffffffffff1673ffffffffffffffffffffffffffffffffffffffff1663c0fda0ec6040518163ffffffff167c0100000000000000000000000000000000000000000000000000000000028152600401602060405180830381600087803b15801562000f2e57600080fd5b505af115801562000f43573d6000803e3d6000fd5b505050506040513d602081101562000f5a57600080fd5b81019080805190602001909291905050509250600160008a6000191660001916815260200190815260200160002060020160019054906101000a900473ffffffffffffffffffffffffffffffffffffffff1673ffffffffffffffffffffffffffffffffffffffff1663ce6d41de6040518163ffffffff167c0100000000000000000000000000000000000000000000000000000000028152600401602060405180830381600087803b1580156200101057600080fd5b505af115801562001025573d6000803e3d6000fd5b505050506040513d60208110156200103c57600080fd5b8101908080519060200190929190505050915050919395979092949650565b600160006200106a87620012f5565b60001916600019168152602001908152602001600020600101546001900460001415156200109757600080fd5b82518451141515620010a857600080fd5b81845110151515620010b957600080fd5b60a060405190810160405280868152602001620010d687620012f5565b600019168152602001600015158152602001858585620010f68a620012f5565b6200110062001363565b8080602001806020018581526020018460001916600019168152602001838103835287818151815260200191508051906020019060200280838360005b838110156200115a5780820151818401526020810190506200113d565b50505050905001838103825286818151815260200191508051906020019060200280838360005b838110156200119e57808201518184015260208101905062001181565b505050509050019650505050505050604051809103906000f080158015620011ca573d6000803e3d6000fd5b5073ffffffffffffffffffffffffffffffffffffffff1681526020018281525060016000620011f988620012f5565b6000191660001916815260200190815260200160002060008201518160000190805190602001906200122d92919062001374565b506020820151816001019060001916905560408201518160020160006101000a81548160ff02191690831515021790555060608201518160020160016101000a81548173ffffffffffffffffffffffffffffffffffffffff021916908373ffffffffffffffffffffffffffffffffffffffff160217905550608082015181600301559050506000620012bf86620012f5565b90806001815401808255809150509060018203906000526020600020016000909192909190915090600019169055505050505050565b6000816040518082805190602001908083835b6020831015156200132f578051825260208201915060208101905060208303925062001308565b6001836020036101000a03801982511681845116808217855250505050505090500191505060405180910390209050919050565b604051611bc2806200142483390190565b828054600181600116156101000203166002900490600052602060002090601f016020900481019282601f10620013b757805160ff1916838001178555620013e8565b82800160010185558215620013e8579182015b82811115620013e7578251825591602001919060010190620013ca565b5b509050620013f79190620013fb565b5090565b6200142091905b808211156200141c57600081600090555060010162001402565b5090565b90560060806040523480156200001157600080fd5b5060405162001bc238038062001bc2833981018060405281019080805182019291906020018051820192919060200180519060200190929190805190602001909291905050506000336000806101000a81548173ffffffffffffffffffffffffffffffffffffffff021916908373ffffffffffffffffffffffffffffffffffffffff16021790555083518551141515620000aa57600080fd5b82855110151515620000bb57600080fd5b82600181905550620000e982865160026200018e6401000000000262000cef17909291906401000000009004565b505b84518110156200015a576200014b85828151811015156200010857fe5b9060200190602002015185838151811015156200012157fe5b906020019060200201516002620001df6401000000000262000d3e17909291906401000000009004565b508080600101915050620000eb565b6200017a6002620003b9640100000000026200093e176401000000009004565b15156200018357fe5b505050505062000882565b600080836001900414151515620001a457600080fd5b60008460000160000154141515620001bb57600080fd5b82600190048460000160000181905550818460040181905550600190509392505050565b6000620001eb62000822565b6200020585620003b9640100000000026401000000009004565b1515156200021257600080fd5b6200022d8585620003d0640100000000026401000000009004565b1515156200023a57600080fd5b60408051908101604052808581526020018481525090506200027081620004386401000000000262000eb1176401000000009004565b15156200027c57600080fd5b60028560000160000154826000015183602001516040518084815260200183815260200182815260200193505050506020604051808303816000865af1158015620002cb573d6000803e3d6000fd5b5050506040513d6020811015620002e157600080fd5b810190808051906020019092919050505060019004856000016000018190555084600201819080600181540180825580915050906001820390600052602060002090600202016000909192909190915060008201518160000155602082015181600101555050506200036285620003b9640100000000026401000000009004565b15620003ad57620003918560000160000154600102620005186401000000000262000f8d176401000000009004565b8560000160008201518160000155602082015181600101559050505b60019150509392505050565b600081600401548260020180549050149050919050565b600080600090505b83600201805490508110156200042c57828460020182815481101515620003fb57fe5b90600052602060002090600202016000015414156200041e576001915062000431565b8080600101915050620003d8565b600091505b5092915050565b60008060007f30644e72e131a029b85045b68181585d97816a916871ca8d3c208c16d87cfd478015156200046857fe5b846000015185600001510991507f30644e72e131a029b85045b68181585d97816a916871ca8d3c208c16d87cfd47801515620004a057fe5b8460000151830990507f30644e72e131a029b85045b68181585d97816a916871ca8d3c208c16d87cfd47801515620004d457fe5b84602001518560200151097f30644e72e131a029b85045b68181585d97816a916871ca8d3c208c16d87cfd478015156200050a57fe5b600383081492505050919050565b6200052262000822565b6000806000809250600091507f30644e72e131a029b85045b68181585d2833e84879b9709143e1f593f000000185600190048115156200055e57fe5b0690505b600115620006165762000584816200061f640100000000026401000000009004565b80935081945050507f30644e72e131a029b85045b68181585d97816a916871ca8d3c208c16d87cfd47801515620005b757fe5b828309831415620005df57604080519081016040528082815260200183815250935062000617565b7f30644e72e131a029b85045b68181585d97816a916871ca8d3c208c16d87cfd478015156200060a57fe5b60018208905062000562565b5b505050919050565b6000806000807f30644e72e131a029b85045b68181585d97816a916871ca8d3c208c16d87cfd478015156200065057fe5b60037f30644e72e131a029b85045b68181585d97816a916871ca8d3c208c16d87cfd478015156200067d57fe5b877f30644e72e131a029b85045b68181585d97816a916871ca8d3c208c16d87cfd47801515620006a957fe5b898a09090891506200070c827f0c19139cb84c680a6e14116da060561765e05aa45a1c72a34f082305b61f3f527f30644e72e131a029b85045b68181585d97816a916871ca8d3c208c16d87cfd476200071b640100000000026401000000009004565b90508181935093505050915091565b600080620007286200083c565b620007326200085f565b60208160006006811015156200074457fe5b60200201818152505060208160016006811015156200075f57fe5b60200201818152505060208160026006811015156200077a57fe5b602002018181525050868160036006811015156200079457fe5b60200201818152505085816004600681101515620007ae57fe5b60200201818152505084816005600681101515620007c857fe5b60200201818152505060208260c08360056107d05a03fa92508260008114620007f157620007f3565bfe5b508215156200080157600080fd5b8160006001811015156200081157fe5b602002015193505050509392505050565b604080519081016040528060008152602001600081525090565b602060405190810160405280600190602082028038833980820191505090505090565b60c060405190810160405280600690602082028038833980820191505090505090565b61133080620008926000396000f3006080604052600436106100a3576000357c0100000000000000000000000000000000000000000000000000000000900463ffffffff1680623db8e3146100a857806342cde4e8146101555780635a8a2aa514610180578063715018a6146101ab57806375d2c1ce146101c25780638da5cb5b1461020a578063c0fda0ec14610261578063ccc47ec81461028c578063ce6d41de146102b9578063f2fde38b146102ec575b600080fd5b3480156100b457600080fd5b5061013b60048036038101908080604001906002806020026040519081016040528092919082600260200280828437820191505050505091929192908035906020019082018035906020019080806020026020016040519081016040528093929190818152602001838360200280828437820191505050505050919291929050505061032f565b604051808215151515815260200191505060405180910390f35b34801561016157600080fd5b5061016a610377565b6040518082815260200191505060405180910390f35b34801561018c57600080fd5b5061019561037d565b6040518082815260200191505060405180910390f35b3480156101b757600080fd5b506101c061038c565b005b3480156101ce57600080fd5b506101ed6004803603810190808035906020019092919050505061048e565b604051808381526020018281526020019250505060405180910390f35b34801561021657600080fd5b5061021f6104e0565b604051808273ffffffffffffffffffffffffffffffffffffffff1673ffffffffffffffffffffffffffffffffffffffff16815260200191505060405180910390f35b34801561026d57600080fd5b50610276610505565b6040518082815260200191505060405180910390f35b34801561029857600080fd5b506102b760048036038101908080359060200190929190505050610515565b005b3480156102c557600080fd5b506102ce610587565b60405180826000191660001916815260200191505060405180910390f35b3480156102f857600080fd5b5061032d600480360381019080803573ffffffffffffffffffffffffffffffffffffffff169060200190929190505050610598565b005b600061036f83600060028110151561034357fe5b602002015184600160028110151561035757fe5b60200201518460026105ff909392919063ffffffff16565b905092915050565b60015481565b60006002800180549050905090565b6000809054906101000a900473ffffffffffffffffffffffffffffffffffffffff1673ffffffffffffffffffffffffffffffffffffffff163373ffffffffffffffffffffffffffffffffffffffff161415156103e757600080fd5b6000809054906101000a900473ffffffffffffffffffffffffffffffffffffffff1673ffffffffffffffffffffffffffffffffffffffff167ff8df31144d9c2f0f6b59d69b8b98abd5459d07f2742c4df920b25aae33c6482060405160405180910390a260008060006101000a81548173ffffffffffffffffffffffffffffffffffffffff021916908373ffffffffffffffffffffffffffffffffffffffff160217905550565b60008060028001838154811015156104a257fe5b90600052602060002090600202016000015460028001848154811015156104c557fe5b90600052602060002090600202016001015491509150915091565b6000809054906101000a900473ffffffffffffffffffffffffffffffffffffffff1681565b6000600260030180549050905090565b6000809054906101000a900473ffffffffffffffffffffffffffffffffffffffff1673ffffffffffffffffffffffffffffffffffffffff163373ffffffffffffffffffffffffffffffffffffffff1614151561057057600080fd5b6105848160026107ea90919063ffffffff16565b50565b6000610593600261081c565b905090565b6000809054906101000a900473ffffffffffffffffffffffffffffffffffffffff1673ffffffffffffffffffffffffffffffffffffffff163373ffffffffffffffffffffffffffffffffffffffff161415156105f357600080fd5b6105fc81610844565b50565b6000806000806000806106118a61093e565b151561061c57600080fd5b6106268a8a610955565b15151561063257600080fd5b60028a600001600001548a8a6040518084815260200183815260200182815260200193505050506020604051808303816000865af1158015610678573d6000803e3d6000fd5b5050506040513d602081101561068d57600080fd5b810190808051906020019092919050505060019004945060009350600092505b89600201805490508310156107c3576106c46109b1565b87846002028151811015156106d557fe5b906020019060200201518115156106e857fe5b0691506106f36109b1565b876001856002020181518110151561070757fe5b9060200190602002015181151561071a57fe5b06905061079e85838360408051908101604052808e81526020018d8152508e600001604080519081016040529081600082015481526020016001820154815250508f6002018981548110151561076c57fe5b9060005260206000209060020201604080519081016040529081600082015481526020016001820154815250506109d9565b94506107a86109b1565b8015156107b157fe5b828508935082806001019350506106ad565b6107cb6109b1565b858115156107d557fe5b06945083851495505050505050949350505050565b816003018190806001815401808255809150509060018203906000526020600020016000909192909190915055505050565b60006108278261093e565b151561083257600080fd5b81600001600001546001029050919050565b600073ffffffffffffffffffffffffffffffffffffffff168173ffffffffffffffffffffffffffffffffffffffff161415151561088057600080fd5b8073ffffffffffffffffffffffffffffffffffffffff166000809054906101000a900473ffffffffffffffffffffffffffffffffffffffff1673ffffffffffffffffffffffffffffffffffffffff167f8be0079c531659141344cd1fd0a4f28419497f9722a3daafe3b4186f6b6457e060405160405180910390a3806000806101000a81548173ffffffffffffffffffffffffffffffffffffffff021916908373ffffffffffffffffffffffffffffffffffffffff16021790555050565b600081600401548260020180549050149050919050565b600080600090505b83600301805490508110156109a55782846003018281548110151561097e57fe5b9060005260206000200154141561099857600191506109aa565b808060010191505061095d565b600091505b5092915050565b60007f30644e72e131a029b85045b68181585d2833e84879b9709143e1f593f0000001905090565b60006109e3610c8f565b6109eb610c8f565b6109f3610c8f565b610a068986610af690919063ffffffff16565b9250610a2383610a158a610b90565b610bb090919063ffffffff16565b9150610a5c610a3b8a89610af690919063ffffffff16565b610a4e8a89610af690919063ffffffff16565b610bb090919063ffffffff16565b905060028a836000015184602001518460000151856020015160405180868152602001858152602001848152602001838152602001828152602001955050505050506020604051808303816000865af1158015610abd573d6000803e3d6000fd5b5050506040513d6020811015610ad257600080fd5b81019080805190602001909291905050506001900493505050509695505050505050565b610afe610c8f565b610b06610ca9565b60008460000151826000600381101515610b1c57fe5b6020020181815250508460200151826001600381101515610b3957fe5b60200201818152505083826002600381101515610b5257fe5b60200201818152505060408360608460076107d05a03fa90508060008114610b7957610b7b565bfe5b50801515610b8857600080fd5b505092915050565b610b98610c8f565b610ba9610ba3610c6b565b83610af6565b9050919050565b610bb8610c8f565b610bc0610ccc565b60008460000151826000600481101515610bd657fe5b6020020181815250508460200151826001600481101515610bf357fe5b6020020181815250508360000151826002600481101515610c1057fe5b6020020181815250508360200151826003600481101515610c2d57fe5b60200201818152505060408360808460066107d05a03fa90508060008114610c5457610c56565bfe5b50801515610c6357600080fd5b505092915050565b610c73610c8f565b6040805190810160405280600181526020016002815250905090565b604080519081016040528060008152602001600081525090565b606060405190810160405280600390602082028038833980820191505090505090565b608060405190810160405280600490602082028038833980820191505090505090565b600080836001900414151515610d0457600080fd5b60008460000160000154141515610d1a57600080fd5b82600190048460000160000181905550818460040181905550600190509392505050565b6000610d48610c8f565b610d518561093e565b151515610d5d57600080fd5b610d67858561107a565b151515610d7357600080fd5b6040805190810160405280858152602001848152509050610d9381610eb1565b1515610d9e57600080fd5b60028560000160000154826000015183602001516040518084815260200183815260200182815260200193505050506020604051808303816000865af1158015610dec573d6000803e3d6000fd5b5050506040513d6020811015610e0157600080fd5b81019080805190602001909291905050506001900485600001600001819055508460020181908060018154018082558091505090600182039060005260206000209060020201600090919290919091506000820151816000015560208201518160010155505050610e718561093e565b15610ea557610e898560000160000154600102610f8d565b8560000160008201518160000155602082015181600101559050505b60019150509392505050565b60008060007f30644e72e131a029b85045b68181585d97816a916871ca8d3c208c16d87cfd47801515610ee057fe5b846000015185600001510991507f30644e72e131a029b85045b68181585d97816a916871ca8d3c208c16d87cfd47801515610f1757fe5b8460000151830990507f30644e72e131a029b85045b68181585d97816a916871ca8d3c208c16d87cfd47801515610f4a57fe5b84602001518560200151097f30644e72e131a029b85045b68181585d97816a916871ca8d3c208c16d87cfd47801515610f7f57fe5b600383081492505050919050565b610f95610c8f565b6000806000809250600091507f30644e72e131a029b85045b68181585d2833e84879b9709143e1f593f00000018560019004811515610fd057fe5b0690505b60011561107157610fe4816110dd565b80935081945050507f30644e72e131a029b85045b68181585d97816a916871ca8d3c208c16d87cfd4780151561101657fe5b82830983141561103c576040805190810160405280828152602001838152509350611072565b7f30644e72e131a029b85045b68181585d97816a916871ca8d3c208c16d87cfd4780151561106657fe5b600182089050610fd4565b5b505050919050565b600080600090505b83600201805490508110156110d1578284600201828154811015156110a357fe5b90600052602060002090600202016000015414156110c457600191506110d6565b8080600101915050611082565b600091505b5092915050565b6000806000807f30644e72e131a029b85045b68181585d97816a916871ca8d3c208c16d87cfd4780151561110d57fe5b60037f30644e72e131a029b85045b68181585d97816a916871ca8d3c208c16d87cfd4780151561113957fe5b877f30644e72e131a029b85045b68181585d97816a916871ca8d3c208c16d87cfd4780151561116457fe5b898a09090891506111b6827f0c19139cb84c680a6e14116da060561765e05aa45a1c72a34f082305b61f3f527f30644e72e131a029b85045b68181585d97816a916871ca8d3c208c16d87cfd476111c5565b90508181935093505050915091565b6000806111d06112be565b6111d86112e1565b60208160006006811015156111e957fe5b602002018181525050602081600160068110151561120357fe5b602002018181525050602081600260068110151561121d57fe5b6020020181815250508681600360068110151561123657fe5b6020020181815250508581600460068110151561124f57fe5b6020020181815250508481600560068110151561126857fe5b60200201818152505060208260c08360056107d05a03fa9250826000811461128f57611291565bfe5b5082151561129e57600080fd5b8160006001811015156112ad57fe5b602002015193505050509392505050565b602060405190810160405280600190602082028038833980820191505090505090565b60c0604051908101604052806006906020820280388339808201915050905050905600a165627a7a72305820d74f530f8a51be84555c2a6636e842c5cdc1a43aa37fd3b5ea51a54fdcc74ea10029a165627a7a72305820ab775577f7437e0208af3ab87b4a451f2d0d37324264fd77817176b79e70e94f0029",
  "source": "pragma solidity ^0.4.24;\n\nimport \"openzeppelin-solidity/contracts/ownership/Ownable.sol\";\nimport \"../RingMultisigned.sol\";\nimport \"../RingMultisig.sol\";\n\n\n/**\n * Example of RingMultisig usage which runs several anonymous votes\n *\n */\ncontract Jury is /*Ownable,*/ RingMultisigned {\n\n    constructor() public {\n\n    }\n\n    /************************** STRUCTURES **************************/\n\n    struct Judgment {\n        string judgmentMatter;\n        bytes32 judgmentMatterHash;\n        bool isGuilty;\n        RingMultisig ringMultisig;\n        uint256 deadline;\n    }\n\n    /************************** PROPERTIES **************************/\n\n    bytes32[] judgmentsIndexes;\n    mapping(bytes32=>Judgment) judgments;\n\n    /************************** MODIFIERS **************************/\n\n    modifier correctJudgmentHash(bytes32 _judgmentsHash) {\n        require(0 != uint256(judgments[_judgmentsHash].judgmentMatterHash));\n        _;\n    }\n\n    modifier beforeDeadline(bytes32 _judgmentsHash) {\n        require(judgments[_judgmentsHash].deadline > now);\n        _;\n    }\n\n    /************************** EXTERNAL **************************/\n\n    function getJudgmentsCount() external view returns (uint256) {\n        return judgmentsIndexes.length;\n    }\n\n    function getJudgmentsIndexes() external view returns (bytes32[] res) { // todo offset&limit\n        res = new bytes32[](judgmentsIndexes.length);\n        for (uint i; i< res.length; i++) {\n            res[i] = judgmentsIndexes[i];\n        }\n    }\n\n    function getJudgment(bytes32 _index)\n        external\n        view\n        returns (\n            string judgmentMatter,\n            uint256[] publicKeysX,\n            uint256[] publicKeysY,\n            uint256 juryThreshold,\n            bool isGuilty,\n            uint256 alreadyMadeDecisions,\n            bytes32 message //unique hash used to create ring signature\n        )\n    {\n        judgmentMatter = judgments[_index].judgmentMatter;\n\n        publicKeysX = new uint256[](judgments[_index].ringMultisig.getPublicKeysCount());\n        publicKeysY = new uint256[](publicKeysX.length);\n        for (uint i=0; i<publicKeysX.length; i++) {\n            (publicKeysX[i], publicKeysY[i]) = judgments[_index].ringMultisig.getPublicKey(i);\n        }\n        juryThreshold = judgments[_index].ringMultisig.threshold();\n        isGuilty = judgments[_index].isGuilty;\n        alreadyMadeDecisions = judgments[_index].ringMultisig.getTagsCount();\n        message = judgments[_index].ringMultisig.getMessage();\n    }\n\n    /************************** PUBLIC **************************/\n\n    /**\n     * Add new element to list of structures\n     **/\n    function add(\n        string _judgmentMatter,\n        uint256[] _publicKeysX,\n        uint256[] _publicKeysY,\n        uint256 _juryThreshold,\n        uint256 deadline\n    ) public /*onlyOwner*/ {\n        require( 0 == uint256(judgments[ hash(_judgmentMatter) ].judgmentMatterHash) );\n        require(_publicKeysX.length == _publicKeysY.length);\n        require(_publicKeysX.length>=_juryThreshold);\n\n        judgments[hash(_judgmentMatter)] =\n            Judgment(\n                _judgmentMatter,\n                hash(_judgmentMatter),\n                false,\n                new RingMultisig(_publicKeysX, _publicKeysY, _juryThreshold, hash(_judgmentMatter)), // todo proxy\n                deadline\n            );\n\n        judgmentsIndexes.push( hash(_judgmentMatter) );\n    }\n\n    /**\n     * Jury \"vote\" by this method. `ringMultisigned` checks signature correctness and\n     * runs method after threshold reached\n     */\n    function guilty(bytes32 _judgmentsHash, uint256[2] _tagPoint, uint256[] ctlist)\n        public\n        beforeDeadline(_judgmentsHash)\n        correctJudgmentHash(_judgmentsHash)\n        ringMultisigned(\n            judgments[_judgmentsHash ].ringMultisig,\n            _tagPoint, ctlist\n        )\n    {\n        judgments[ _judgmentsHash ].isGuilty = true;\n    }\n\n\n    /************************** INTERNAL **************************/\n\n\n    function hash(string _str) internal pure returns (bytes32) {\n        return keccak256(\n            bytes(_str)\n        );\n    }\n}\n",
  "sourcePath": "/data/cloud/projects/2018/hack/ethberlin/ring-multisig/contracts/usage_examples/Jury.sol",
  "compiler": {
    "name": "solc",
    "version": "0.4.24+commit.e67f0147.Emscripten.clang"
  },
  "schemaVersion": "2.0.1",
  "updatedAt": "2018-09-08T19:20:44.802Z"
}